:020000040800F2
:10000000000005200111000821100008231000083D
:100010002510000827100008291000080000000023
:100020000000000000000000000000002B1000088D
:100030002D100008000000002F10000831100008EB
:100040005111000851110008511100085111000808
:1000500051110008511100085111000851110008F8
:1000600051110008511100085111000851110008E8
:1000700051110008511100085111000851110008D8
:1000800051110008511100085111000851110008C8
:1000900051110008511100085111000851110008B8
:1000A00051110008511100085111000851110008A8
:1000B0005111000851110008511100085111000898
:1000C0005111000851110008511100085111000888
:1000D0005111000851110008511100085111000878
:1000E00051110008511100080000000051110008D2
:1000F0005111000851110008511100085111000858
:100100005111000851110008511100085111000847
:100110005111000851110008511100085111000837
:100120005111000851110008511100085111000827
:100130005111000851110008511100080000000081
:100140005111000851110008511100083510000824
:1001500051110008511100085111000851110008F7
:1001600051110008511100085111000851110008E7
:100170005111000851110008000000005111000841
:1001800051110008511100085111000851110008C7
:100190005111000851110008511100080000000021
:1001A000000000000000000051110008511100087B
:0C01B0005111000800000000511100086F
:1001C00010B5054C237833B9044B13B10448AFF391
:1001D00000800123237010BDD00200200000000029
:1001E0001C9E000808B5034B1BB103490348AFF33D
:1001F000008008BD00000000D40200201C9E000802
:1002000001F0FF01102A2BDB10F0070F08D010F8C7
:10021000013B013A8B422DD010F0070F42B3F6D1CB
:10022000F0B441EA012141EA014122F007047FF0E4
:1002300000070023F0E80256083C85EA010586EA3B
:10024000010685FA47F5A3FA87F586FA47F6A5FA77
:1002500087F68EB9EED1F0BC01F0FF0102F0070283
:1002600032B110F8013B013A83EA010313B1F8D12E
:100270000020704701387047002D06BF354603380F
:10028000073815F0010F07D1013015F4807F02BF48
:10029000013015F4C03F0130F0BC0138704700BF99
:1002A000034613F8012B002AFBD1181A01387047B6
:1002B00081F0004102E000BF83F0004330B54FEA17
:1002C00041044FEA430594EA050F08BF90EA020F84
:1002D0001FBF54EA000C55EA020C7FEA645C7FEA17
:1002E000655C00F0E2804FEA5454D4EB5555B8BF3A
:1002F0006D420CDD2C4480EA020281EA030382EAAB
:10030000000083EA010180EA020281EA0303362D3C
:1003100088BF30BD11F0004F4FEA01314FF4801C0F
:100320004CEA113102D0404261EB410113F0004F21
:100330004FEA03334CEA133302D0524263EB4303D8
:1003400094EA050F00F0A780A4F10104D5F1200E76
:100350000DDB02FA0EFC22FA05F2801841F10001D1
:1003600003FA0EF2801843FA05F359410EE0A5F1A5
:1003700020050EF1200E012A03FA0EFC28BF4CF0D6
:10038000020C43FA05F3C01851EBE37101F000458C
:1003900007D54FF0000EDCF1000C7EEB00006EEB99
:1003A0000101B1F5801F1BD3B1F5001F0CD3490823
:1003B0005FEA30004FEA3C0C04F101044FEA44527A
:1003C00012F5800F80F09A80BCF1004F08BF5FEA01
:1003D000500C50F1000041EB045141EA050130BDE1
:1003E0005FEA4C0C404141EB0101013C28BFB1F5F3
:1003F000801FE9D291F0000F04BF01460020B1FA3E
:1004000081F308BF2033A3F10B03B3F120020CDA10
:100410000C3208DD02F1140CC2F10C0201FA0CF0EE
:1004200021FA02F10CE002F11402D8BFC2F1200C53
:1004300001FA02F120FA0CFCDCBF41EA0C01904009
:10044000E41AA2BF01EB0451294330BD6FEA040452
:100450001F3C1CDA0C340EDC04F11404C4F120023D
:1004600020FA04F001FA02F340EA030021FA04F34F
:1004700045EA030130BDC4F10C04C4F1200220FAA6
:1004800002F001FA04F340EA0300294630BD21FAE4
:1004900004F0294630BD94F0000F83F4801306BFAA
:1004A00081F480110134013D4EE77FEA645C18BF9E
:1004B0007FEA655C29D094EA050F08BF90EA020F35
:1004C00005D054EA000C04BF1946104630BD91EA2D
:1004D000030F1EBF0021002030BD5FEA545C05D130
:1004E0004000494128BF41F0004130BD14F580046F
:1004F0003CBF01F5801130BD01F0004545F0FE41E3
:1005000041F470014FF0000030BD7FEA645C1ABF17
:10051000194610467FEA655C1CBF0B46024650EA4E
:10052000013406BF52EA033591EA030F41F400217A
:1005300030BD00BF90F0000F04BF0021704730B500
:100540004FF4806404F132044FF000054FF00001D5
:1005500050E700BF90F0000F04BF0021704730B596
:100560004FF4806404F1320410F0004548BF40426B
:100570004FF000013EE700BF42004FEAE2014FEAC0
:1005800031014FEA02701FBF12F07F4393F07F4F9B
:1005900081F06051704732F07F4208BF704793F09E
:1005A0007F4F04BF41F40021704730B54FF46074B1
:1005B00001F0004521F000411CE700BF50EA0102B4
:1005C00008BF704730B54FF000050AE050EA01025D
:1005D00008BF704730B511F0004502D5404261EBCD
:1005E00041014FF4806404F132045FEA915C3FF40E
:1005F000D8AE4FF003025FEADC0C18BF03325FEAAB
:10060000DC0C18BF033202EBDC02C2F1200300FA5B
:1006100003FC20FA02F001FA03FE40EA0E0021FA80
:1006200002F11444BDE600BF70B54FF0FF0C4CF46E
:10063000E06C1CEA11541DBF1CEA135594EA0C0F20
:1006400095EA0C0F00F0DEF82C4481EA030621EA5B
:100650004C5123EA4C5350EA013518BF52EA033596
:1006600041F4801143F4801338D0A0FB02CE4FF048
:100670000005E1FB02E506F00042E0FB03E54FF078
:100680000006E1FB03569CF0000F18BF4EF0010E70
:10069000A4F1FF04B6F5007F64F5407404D25FEA6C
:1006A0004E0E6D4146EB060642EAC62141EA55511F
:1006B0004FEAC52040EA5E504FEACE2EB4F1FD0C61
:1006C00088BFBCF5E06F1ED8BEF1004F08BF5FEADF
:1006D000500E50F1000041EB045170BD06F0004691
:1006E00046EA010140EA020081EA0301B4EB5C043E
:1006F000C2BFD4EB0C0541EA045170BD41F4801136
:100700004FF0000E013C00F3AB8014F1360FDEBF5A
:10071000002001F0004170BDC4F10004203C35DA36
:100720000C341BDC04F11404C4F1200500FA05F3B9
:1007300020FA04F001FA05F240EA020001F000425A
:1007400021F0004110EBD37021FA04F642EB0601D0
:100750005EEA430E08BF20EAD37070BDC4F10C04FA
:10076000C4F1200500FA04F320FA05F001FA04F2BE
:1007700040EA020001F0004110EBD37041F10001AA
:100780005EEA430E08BF20EAD37070BDC4F12005B5
:1007900000FA05F24EEA020E20FA04F301FA05F21D
:1007A00043EA020321FA04F001F0004121FA04F2C5
:1007B00020EA020000EBD3705EEA430E08BF20EA95
:1007C000D37070BD94F0000F0FD101F000464000CF
:1007D00041EB010111F4801F08BF013CF7D041EA51
:1007E000060195F0000F18BF704703F00046520055
:1007F00043EB030313F4801F08BF013DF7D043EA26
:100800000603704794EA0C0F0CEA135518BF95EADB
:100810000C0F0CD050EA410618BF52EA4306D1D162
:1008200081EA030101F000414FF0000070BD50EA81
:10083000410606BF1046194652EA430619D094EA0B
:100840000C0F02D150EA013613D195EA0C0F05D1F5
:1008500052EA03361CBF104619460AD181EA030149
:1008600001F0004141F0FE4141F470014FF0000001
:1008700070BD41F0FE4141F4780170BD70B54FF09C
:10088000FF0C4CF4E06C1CEA11541DBF1CEA13551C
:1008900094EA0C0F95EA0C0F00F0A7F8A4EB0504FE
:1008A00081EA030E52EA03354FEA013100F08880F5
:1008B0004FEA03334FF0805545EA131343EA1263BE
:1008C0004FEA022245EA111545EA10654FEA002673
:1008D0000EF000419D4208BF964244F1FD0404F52C
:1008E000407402D25B084FEA3202B61A65EB030588
:1008F0005B084FEA32024FF480104FF4002CB6EB45
:10090000020E75EB030E22BFB61A754640EA0C00C4
:100910005B084FEA3202B6EB020E75EB030E22BF04
:10092000B61A754640EA5C005B084FEA3202B6EB45
:10093000020E75EB030E22BFB61A754640EA9C0004
:100940005B084FEA3202B6EB020E75EB030E22BFD4
:10095000B61A754640EADC0055EA060E18D04FEA92
:10096000051545EA16754FEA06164FEAC30343EA32
:1009700052734FEAC2025FEA1C1CC0D111F4801FFF
:100980000BD141EA00014FF000004FF0004CB6E7F8
:1009900011F4801F04BF01430020B4F1FD0C88BF97
:1009A000BCF5E06F3FF6AFAEB5EB030C04BFB6EBA2
:1009B000020C5FEA500C50F1000041EB045170BD95
:1009C0000EF0004E4EEA113114EB5C04C2BFD4EBC2
:1009D0000C0541EA045170BD41F480114FF0000E46
:1009E000013C90E645EA060E8DE60CEA135594EAC2
:1009F0000C0F08BF95EA0C0F3FF43BAF94EA0C0FC5
:100A00000AD150EA01347FF434AF95EA0C0F7FF439
:100A100025AF104619462CE795EA0C0F06D152EA8D
:100A200003353FF4FDAE1046194622E750EA410671
:100A300018BF52EA43067FF4C5AE50EA41047FF482
:100A40000DAF52EA43057FF4EBAE12E74FF0FF3CE7
:100A500006E000BF4FF0010C02E000BF4FF0010CB8
:100A60004DF804CD4FEA410C7FEA6C5C4FEA430C31
:100A700018BF7FEA6C5C1BD001B050EA410C0CBF80
:100A800052EA430C91EA030F02BF90EA020F0020E2
:100A9000704710F1000F91EA030F58BF994208BF49
:100AA00090422CBFD8176FEAE37040F00100704706
:100AB0004FEA410C7FEA6C5C02D150EA013C07D15D
:100AC0004FEA430C7FEA6C5CD6D152EA033CD3D0A8
:100AD0005DF8040B704700BF8446104662468C46A2
:100AE0001946634600E000BF01B5FFF7B7FF0028D5
:100AF00048BF10F1000F01BD4DF808EDFFF7F4FFFE
:100B00000CBF012000205DF808FB00BF4DF808ED88
:100B1000FFF7EAFF34BF012000205DF808FB00BFAB
:100B20004DF808EDFFF7E0FF94BF012000205DF8CD
:100B300008FB00BF4DF808EDFFF7CEFF94BF012082
:100B400000205DF808FB00BF4DF808EDFFF7C4FF7B
:100B500034BF012000205DF808FB00BF4FEA410CC4
:100B60007FEA6C5C02D150EA013C0AD14FEA430CA7
:100B70007FEA6C5C02D152EA033C02D14FF00000E4
:100B800070474FF0010070474FEA410212F5001222
:100B900015D211D56FF47873B3EB625212D94FEAC4
:100BA000C12343F0004343EA505311F0004F23FAAE
:100BB00002F018BF404270474FF00000704750EA03
:100BC000013005D111F0004008BF6FF000407047C0
:100BD0004FF00000704700BF4A0011D212F500121A
:100BE00011D20DD56FF47873B3EB62520ED44FEA85
:100BF000C12343F0004343EA505323FA02F0704705
:100C00004FF00000704750EA013002D14FF0FF3042
:100C100070474FF0000070474FEA4102B2F1E043E5
:100C200024BFB3F5001CDCF1FE5C0DD901F0004CD3
:100C30004FEAC0024CEA5070B2F1004F40EB830023
:100C400008BF20F00100704711F0804F21D113F14F
:100C50003872BCBF01F00040704741F480114FEA88
:100C60005252C2F11802C2F1200C10FA0CF320FA11
:100C700002F018BF40F001004FEAC1234FEAD3232E
:100C800003FA0CFC40EA0C0023FA02F34FEA430398
:100C9000CCE77FEA625307D150EA01331EBF4FF021
:100CA000FE4040F44000704701F0004040F0FE403C
:100CB00040F40000704700BF38B50022002304460E
:100CC0000D46FFF723FF28B920462946BDE83840E6
:100CD00000F00AB8204605F1004100F005F8404256
:100CE00061EB410138BD00BFD0B50C4B0022064678
:100CF0000F46FFF799FCFFF76FFF0446FFF71AFC5A
:100D0000074B0022FFF790FC02460B46304639465F
:100D1000FFF7D2FAFFF760FF2146D0BD0000F03D9B
:100D20000000F04100B5B3B00A460146684604F041
:100D300047FE002806DD6846FFF7B2FA81B2684632
:100D400003F05AFC33B000BD0FB407B504A951F845
:100D5000040B0191FFF7E6FF03B05DF804EB04B06C
:100D60007047000030B599B04822002106A814252C
:100D700004F030FE2A46002101A804F02BFE0020DA
:100D800001F080F8044608B172B6FEE701F062F89F
:100D9000174AD2F8903023F01803C2F8903060233D
:100DA00001220F930223CDE90D24CDE911320892DF
:100DB000139206A83C22CDE91423CDE916330695FB
:100DC00001F048F908B172B6FEE7CDE903000F2241
:100DD00003230590052101A8CDE9012301F020FCA2
:100DE00008B172B6FEE702F05DF819B030BD00BF81
:100DF0000010024080B58CB000F0D2F9FFF7B2FFCE
:100E0000624B634EDA6CDFF8E081624F9FED62BAAD
:100E100042F00402DA64DA6C02F004020A920A9ADE
:100E2000DA6C42F00102DA64DB6C03F001030B932D
:100E30000B9B03F095FB594B336000F0CDF9D8F8CC
:100E400000305A339842F8D900F0C6F997ED008A7D
:100E50009FED530AC8F8000038EE0B8A9FED51AAA7
:100E600087ED008A28EE000A08F098F9DFED4E7A47
:100E7000DFED4E9AA0EE27AA9FED4D0A28EE000A5C
:100E800008F08CF9F3EE047AA0EE27AA494B9FED07
:100E90004A0A83ED00AA28EE000A08F07FF9F3EE73
:100EA0000BAAF0EE007AE0EE27AA444BDFED447A7D
:100EB0009FED440AC3ED00AACAEE27BA28EE000A45
:100EC00008F06CF9DFED407A404B20EE279AF2EE05
:100ED000017AABEEA79A9FED3E0A83ED009A28EEC9
:100EE000000A08F05BF9F0EE087AE0EE279A9FED31
:100EF000390A28EE000A08F051F9DFED377A374B4E
:100F0000F2EE088AE0EE279A7AEEA88AF1EE047AE9
:100F1000EBEEA78A28EE0B0AC3ED009A08F03EF923
:100F2000B0EE688AA0EE0B8A2D4B69EE298A19EE85
:100F3000900AC3ED008A86ED008AFFF71DFB044688
:100F40001AEE100A0D46FFF717FBCDE908011AEE5D
:100F5000900AFFF711FBCDE9060118EE100AFFF722
:100F60000BFBCDE9040118EE900AFFF705FBCDE974
:100F7000020119EE100AFFF7FFFA2246CDE900013F
:100F80002B461848FFF7E0FE57E700BF001002406D
:100F9000F8020020EC020020CDCCCC3D0000304215
:100FA0006F12033C00803B440000664300C02844AD
:100FB000295C0F3DF00200206F12833BF4020020F9
:100FC000008054443333333F8FC2F53C000300208C
:100FD0000AD7A33CCDCC4C3F9A99993E04030020FC
:100FE000FC020020389E00080803002072B6FEE7CD
:100FF0000A4B1A6E42F0010282B01A661A6E02F0B3
:1010000001020092009A9A6D42F080529A659B6D9F
:1010100003F080530193019B02B07047001002401F
:10102000FEE7FEE7FEE7FEE7FEE770477047704722
:1010300000F0C6B8014800F0CDBB00BF141A002074
:101040000120704708B504F017FD162303604FF028
:10105000FF3008BD08B504F00FFD16230360FEE75E
:1010600070B50D4614460E46731B9C4201DC2046AB
:1010700070BDAFF3008006F8010BF5E770B50D46C3
:1010800014460E46731B9C4201DC204670BD16F8C8
:10109000010BAFF30080F5E74FF0FF3070474FF4DE
:1010A00000534B60002070470120704700207047BC
:1010B0000A4A0346106810B508B909481060094982
:1010C000094C0344091B8B4206D904F0D5FC0C23C0
:1010D00003604FF0FF3010BD1360FCE70C030020ED
:1010E000482000200000052000040000034AD2F838
:1010F000883043F47003C2F88830704700ED00E098
:10110000DFF834D0FFF7F2FF0C480D490D4A0023F9
:1011100002E0D458C4500433C4188C42F9D30A4AAC
:101120000A4C002301E013600432A242FBD304F016
:10113000A9FCFFF75FFEFEE700000520000000208D
:10114000D0020020E4A60008D002002044200020A5
:10115000FEE7000038B50F4B1A7805460AB90120A2
:1011600038BD4FF47A73B3FBF2F30B4A1068B0FB4F
:10117000F3F000F09DF804460028F0D10F2DEED8D2
:10118000024629464FF0FF3000F052F8034B20464C
:101190001D60E5E70400002000000020080000209A
:1011A00010B5032000F032F80F20FFF7D3FF0446FC
:1011B00018B9FFF71DFF204610BD0124FBE7000012
:1011C000034A044B11681B780B441360704700BF3F
:1011D0001003002004000020014B1868704700BF76
:1011E0001003002038B50446FFF7F6FF631C1CBF50
:1011F000054B1B78054618BFE418FFF7EDFF431BAE
:10120000A342FAD338BD00BF040000200749CA68D2
:1012100022F4E0620302120403F4E063120C1343AD
:1012200043F0BF6343F40033CB60704700ED00E050
:10123000164B30B5DC68C4F30224C4F10703251D46
:10124000042B28BF0423062D4FF0FF358CBF033C31
:10125000002405FA03F321EA0303A54022EA05026C
:10126000A340002843EA0203ACBF00F16040084AF3
:101270004FEA0313B8BF00F00F00DBB2AABF00F5BE
:101280006140135480F8003330BD00BF00ED00E032
:1012900014ED00E0002807DB044A4109012300F0B7
:1012A0001F00834042F82130704700BF00E100E09A
:1012B0000138B0F1807F0BD24FF0E023054A58612E
:1012C000F02182F823100020072298611A617047EC
:1012D0000120704700ED00E02DE9F74FDFF8A09105
:1012E000654C00230A6832FA03F502D103B0BDE869
:1012F000F08F012505FA03F818EA020200F0AC802D
:101300004E68032706F003054FEA430E07FA0EFC6A
:101310006F1E012F6FEA0C0C34D8876807EA0C0A9D
:10132000CF6807FA0EF747EA0A078760476827EA97
:101330000808C6F300179F4047EA08074760C768D8
:1013400007EA0C088F6807FA0EF747EA0807022D2C
:10135000C76019D14FEAD30800EB880803F0070AE9
:10136000D8F820704FEA8A0A4FF00F0B0BFA0AFBED
:1013700027EA0B0B0F6907FA0AF747EA0B07C8F8C9
:10138000207001E0032DDAD1076805FA0EF507EAAF
:101390000C073D4316F4403F05605DD0D9F860501E
:1013A00045F00105C9F86050D9F8605023F00307F3
:1013B00007F1804705F0010507F58037019503F037
:1013C000030C019DBD684FEA8C0C4FF00F0E0EFA16
:1013D0000CFEB0F1904F25EA0E0E3FD0274DA842EB
:1013E0003ED005F58065A8423CD005F58065A84251
:1013F0003AD005F58065A84238D005F58065A84249
:1014000036D005F58065A84234D005F58065A84240
:1014100014BF0825072505FA0CF545EA0E05BD6041
:10142000A568D74316F4801F0CBF3D401543A56047
:10143000E56816F4001F0CBF3D401543E560656884
:1014400016F4003F0CBF3D40154365602568F60368
:1014500054BF3D4015432560013343E70025DAE7DB
:101460000125D8E70225D6E70325D4E70425D2E7EE
:101470000525D0E70625CEE700040140000400481A
:1014800000100240F7B50446F0B190F8953403F02F
:10149000FF021BB980F8942403F03AF9032384F87F
:1014A00095340023A371206801F0B8FD237C8DF8EA
:1014B0000030251D95E80E00206801F0FBFC014678
:1014C00030B1022384F895340125284603B0F0BDDD
:1014D000206801F0A9FD0028F3D1267904F1140356
:1014E00001270246C1B28E4203F1240321D8002114
:1014F00004F515730A46C8B2864203F1240326D8C0
:10150000237C8DF8003095E80E00206801F008FE7D
:1015100005460028D5D10123607484F89534237BD7
:10152000012B02D1204600F082FC206802F021F954
:10153000CBE723F80A0C43E9072203F8237C03F8DE
:10154000241C03F8202C43F8142C0130CAE743E98B
:10155000072203F8232C03F8240C03F8202C43F86B
:10156000142C0131C7E710B50446006894F8943490
:10157000012B12D0012384F89434637B012B02BF2A
:10158000836B43F48033836301F042FD206802F0F3
:10159000E2F8002084F8940410BD0220FCE710B5A6
:1015A00090F89424012A04460AD0012280F8942459
:1015B0004174006802F0BFF8002084F8940410BD64
:1015C0000220FCE770B50546242401F00F0011F05D
:1015D000800F00FB04F414BF04F1140104F515712D
:1015E00005EB040615BF491949190124002414BF4D
:1015F000747586F85542C2F30A028A604A78087008
:101600000B7102B14883022B04BF00234B7195F884
:101610009434012B09D00123286885F8943401F013
:101620002FFE002085F8940470BD0220FCE701F035
:101630000F02242311F0800F02FB03F310B514BF37
:1016400003F1140103F51571044618BF0919184474
:101650000BBF091901230023437508BF80F85532D9
:101660000A7094F89434012B09D00123206884F87F
:10167000943401F045FE002084F8940410BD02204B
:10168000FCE770B501F00F0124244C430519002636
:1016900085F8541285F8556204F515710144C5E9C1
:1016A0009823C5F86862006801F05EFF304670BD9F
:1016B00001F00F01242303FB0100D0F868027047FA
:1016C00070B501F00F0124244C430519C5E9082326
:1016D0000123297500266B7504F114010144AE62E3
:1016E000006801F041FF304670BD38B5037901F064
:1016F0000F05AB4204462AD311F0800F4FF02403AC
:101700001CD06B4303F114010344012201445A75B8
:1017100001238B700D7094F894249A4219D020689C
:1017200084F8943401F0BDFE25B9206804F29C4190
:1017300002F06EF8002084F8940438BD4B4303F5A2
:10174000157103440022014483F85522E0E701208B
:10175000F3E70220F1E738B5037901F00F02934275
:10176000044625D3242311F0800F02FB03F314BF9A
:1017700003F1140103F51571184415BF091909196E
:10178000012300234FF0000514BF437580F8553244
:101790008D700A7094F89434012B0BD001232068CB
:1017A00084F8943401F0A8FE84F89454284638BD97
:1017B0000120FCE70220FAE701F00F032422534343
:1017C0000A064CBF03F1140103F5157101440068CA
:1017D00001F0ECBD2DE9F04F066887B004463046B5
:1017E00002F003F80190002840F06D81206801F0BC
:1017F000CEFF002800F06781D6F808382068C3F3D0
:101800000D23C4F8D43401F0C2FF2368820742BF1D
:101810005A6902F002025A61184601F0B8FFC30685
:1018200006F500652DD52268936923F010039361B6
:10183000D6F8208008F4F013B3F5802F08F00F07D6
:1018400040F0448147F6F07318EA030F14D02423C4
:1018500003FB0747C8F30A19D7F860124A46304617
:1018600001F048FFD7F860324B44C7F86032D7F830
:1018700068324B44C7F868322268936943F010031A
:101880009361206801F083FF070300F13281206833
:1018900001F07DFF40030CD5206801F084FF27464E
:1018A000029006F5106B4FF0000A029B002B40F0EF
:1018B0009D81206801F06BFF002813DA6B6823F02C
:1018C00001036B6094F8CC34012B40F0248200219A
:1018D00084F8CC14204603F095F82268536903F08D
:1018E00000435361206801F052FF03050AD5AB683D
:1018F000DF0702D5204602F0A7FF2268536903F4F0
:1019000000635361206801F042FF000114D5236891
:101910005A6902F000625A6194F8CC24002A40F01F
:10192000FE81012184F8CC145B6DC3F38303C4F8FA
:10193000D034204603F066F8206801F028FFC10487
:1019400032D56B68206823F001036B60102101F031
:101950009BFB207906F510634FF67F31019A904288
:1019600000F2E181EB6943F00113EB61E37B002BB3
:1019700000F0F181D5F8843043F00B03C5F88430D2
:101980006B6C43F00B036B64D6F80038206823F4CB
:10199000FE63C6F8003804F29C4101F039FF22686A
:1019A000536903F480535361206801F0F0FE820410
:1019B00016D5206801F01DFF206801F057FCE0718A
:1019C000276800F029FFE2790146384601F0B0FAB5
:1019D000204602F026FF2268536903F40053536146
:1019E000206801F0D4FE030707D5204602F015FF5A
:1019F0002268536903F008035361206801F0C7FEB1
:101A0000070600F1B381206801F0C1FEC0020CD5C9
:101A1000A04606F5126901272379BB4200F2C58171
:101A20002268536903F480135361206801F0AFFE0C
:101A300081022BD594F804E0234606F532614FF07D
:101A4000010CE6451DD993F87C720868012F40F01F
:101A5000C281002880F2BF81D4F8D42482EA1040E9
:101A6000C20700F1B88183F87B72B06940F0800052
:101A7000B0617069000600F1AE816B6843F40073D9
:101A80006B602268536903F400135361206801F00E
:101A90007EFE410007D5204602F010FF2268536900
:101AA00003F080435361206801F071FE42070AD5BC
:101AB00023685D686B0702D5204602F003FF2268A9
:101AC00053682B43536007B0BDE8F08FB3F5402F48
:101AD0007FF4D2AE082204F29C41304601F00AFEA7
:101AE000242303FB0747C8F30A18D7F86832434496
:101AF000C0E6206801F04FFE06F530678146A34638
:101B00004FF0000AB9F1000F3FF4C1AE19F0010F18
:101B10005AD05FFA8AF320680293194601F04BFE0F
:101B200010F0010F804610D00123BB602368AC4940
:101B3000186C03F5306303EB4A1388429A684FD15F
:101B4000110449D54FF400429A6018F0080F13D0E1
:101B50000823BB602368A349186C03F5306303EBCB
:101B60004A1388429A6804D9100444BF4FF40042D3
:101B70009A60204602F03AFE18F0100F1CBF1023A6
:101B8000BB6018F0020F14D07369190642BF6B686E
:101B900043F480636B609BF85732012B07D100231D
:101BA0008BF857325FFA8AF1204602F07FFE02235B
:101BB000BB6018F0200F1CBF2023BB6018F4005F2F
:101BC0001CBF4FF40053BB600AF1010A4FEA5909E8
:101BD00020370BF1240B95E7920644BF20229A6030
:101BE0005FFA8AF1204602F007FEAEE7029BDA07B1
:101BF00040F188805FFA8AF320680593194601F066
:101C0000E3FD10F0010F80460FD06B6B01210AF04D
:101C10000F0201FA02F223EA02036B632046CBF8BB
:101C200008105FFA8AF102F0F0FD18F0080F1CBFEF
:101C30000823CBF8083018F0100F1CBF1023CBF886
:101C4000083018F0400F1CBF4023CBF8083018F0C4
:101C5000020F10D05146304601F016FAFB7D012BE1
:101C600006D10023FB755FFA8AF1204602F022FEBE
:101C70000223CBF8083018F0800F43D0D7E909329F
:101C80009A423FD8A3EB0208FB692168039198456B
:101C900028BF984601F5106308F1030803EB4A13C7
:101CA0004FEA98080493049B996989B24145D7E9A2
:101CB000093225D393420BD8039B0AF00F00D3F8C7
:101CC00034280121814022EA0102C3F8342819E0B6
:101CD000A3EB0209FB69059A396A0398994528BF65
:101CE00099461FFA89F301F030FC3B6A4B443B6292
:101CF000BB6A09F103084B444FEA9808BB62D2E77C
:101D00009342D9D9029B5B080AF1010A0293243756
:101D10000BF1200BC9E5204602F0AEFDDDE52046C3
:101D200002F092FD08E699601A6822F400121A6027
:101D3000C3F80812D3F8002222F40012C3F80022DC
:101D4000D3F8002242F00062C3F80022019A013267
:101D50000192203302E66B6943F4005343F02B03F6
:101D60006B612B6943F00B032B610DE6B36923F024
:101D70008003B361207906F53263012204F257270C
:101D80004FF0240C90427FF63EAE0CFB02F1795CE2
:101D9000012907D1196841F000611960196841F003
:101DA0008041196001322033ECE798F83C30D9F8D3
:101DB0000020012B09D1002A07DA67F07F0188F89B
:101DC0003B30C9B22046FFF7F7FC013708F1240881
:101DD00009F1200920E60CF1010C2433203130E612
:101DE0000A31544F0A30544F006870B5436A1204E8
:101DF00019B913438362002070BD846A4E1E03EB41
:101E000014430024A64205D83F3100EB8100134360
:101E10004360F0E704F1400500EB850501346D688F
:101E200003EB1543EEE70368002059627047034651
:101E300001210268C0F8D814002083F8CC0493690B
:101E400043F000639361536D43F0805343F0030309
:101E500053657047024A136843F4807313607047F8
:101E600000700040064B186800F4C060B0F5806F49
:101E70001EBFD3F88000C0F300204002704700BFAF
:101E800000700040284B1A6818BB02F4C062B2F51B
:101E9000806FD3F8802022F48072C3F8802040D174
:101EA0001A6822F4C06242F400721A601F4A126873
:101EB00032214A431E49B2FBF1F201325969490508
:101EC00000D522B95B6958052BD503207047013A2C
:101ED000F4E7B0F5007F1FD102F4C062B2F5806F65
:101EE000D3F8802042F48072C3F8802019D11A6898
:101EF00022F4C06242F400721A600C4A1268322165
:101F00004A430B49B2FBF1F2013259694905D9D56F
:101F1000002AD7D0013AF8E722F4C06242F4806286
:101F20001A600020704700BF0070004000000020D1
:101F300040420F00024A536843F480635360704785
:101F40000070004037B51C4DAB6DDA00044618D563
:101F5000FFF788FFB0F5007F23D1802C28D9A02C73
:101F60008CBF0224012415490A6822F00F02224383
:101F70000A60086800F00F00001B18BF012003B0C2
:101F800030BDAB6D43F08053AB65AB6D03F0805358
:101F90000193019BFFF766FFAB6D23F08053AB65A8
:101FA000D8E77F2C06D8A4F170035C425C41DAE7E5
:101FB0000024D8E70224D6E70010024000200240A7
:101FC000204B9A68D96812F00C0205D00C2A2CD14B
:101FD00001F0030101292FD119681B48090755BFDA
:101FE000D3F894101968C1F30321C1F3031150F819
:101FF000210032B3DA6802F00302022A1ED013492C
:10200000032A08BF0846D968DA68C2F306224243A9
:10201000D868C0F34160C1F30311013001314000C1
:10202000B2FBF1F2B2FBF0F07047042A08D0082AA4
:10203000064818BF002070470020DBE70448E2E7AD
:10204000034870470010024070A0000800127A0098
:102050000024F4002DE9F743054618B9012003B028
:10206000BDE8F083944C0368A668E768DB0606F0D9
:102070000C0607F003073DD51EB10C2E6AD1012FC7
:1020800068D12368980702D5EB69002BE6D0236856
:10209000686A190756BFD4F8943023681B0903F007
:1020A000F00398423FD9FFF74DFF0028D6D12368AF
:1020B00043F00803236023686A6A23F0F0031343A4
:1020C000236063682A6A23F47F4343EA0223636040
:1020D000FFF776FFA368794AC3F30313D35C03F0D9
:1020E0001F03D840764B1860764B1868FFF732F81C
:1020F0000028B4D12B68D80763D42B68990700F166
:10210000A2802B681F0700F1DF802B68580700F1C1
:102110002F812B689F0600F1AB81EB6A002B40F00A
:10212000D18100209BE7236843F0080323602368E4
:1021300023F0F0030343236063682A6A23F47F4398
:1021400043EA02236360002EC2D1FFF7FBFE0028A2
:10215000BED083E7EB691BB3236843F00103236020
:10216000FFF73AF8804623689A0711D5236843F0B1
:102170000803236023686A6A23F0F0031343236093
:1021800063682A6A23F47F4343EA02236360B1E76A
:10219000FFF722F8A0EB08000228E4D903205EE74D
:1021A000236823F001032360FFF716F880462368B5
:1021B0009B079FD5FFF710F8A0EB08000228F6D97F
:1021C000ECE7082E03D00C2E08D1032F06D123688C
:1021D0009A0392D56B68002B8FD13FE76B68B3F5FC
:1021E000803F10D1236843F480332360FEF7F4FF6F
:1021F000804623689B0380D4FEF7EEFFA0EB080027
:102200006428F6D9CAE7B3F5A02F04D1236843F4B4
:1022100080232360E6E7226822F48032226022686D
:1022200022F480222260002BE0D1FEF7D5FF804609
:10223000236898037FF561AFFEF7CEFFA0EB08009F
:102240006428F5D9AAE7042E03D00C2E10D1022F52
:102250000ED12368590503D5EB68002B3FF4FEAE81
:1022600063682A6923F0FE4343EA0263636048E738
:10227000EB687BB1236843F480732360FEF7ACFF07
:10228000074623685A05EBD4FEF7A6FFC01B0228B9
:10229000F7D983E7236823F480732360FEF79CFF5C
:1022A000074623685B057FF52CAFFEF795FFC01B43
:1022B0000228F6D972E700BF00100240A0A0000873
:1022C00000000020080000206B69002B3CD0D4F8EF
:1022D0009430A96903F0100291420ED003F003027A
:1022E000022A3FF4BBAED9071BD4D4F89430AA69B4
:1022F00023F010031343C4F89430D4F8943043F01F
:102300000103C4F89430FEF767FF0746D4F8943011
:102310009B073FF5FAAEFEF75FFFC01B1128F5D90A
:102320003CE7D4F8943023F00103C4F89430FEF76E
:1023300053FF0746D4F894309A07D6D5FEF74CFFE2
:10234000C01B1128F6D929E7D4F8943023F00103F3
:10235000C4F89430FEF740FF0746D4F8943098074D
:102360007FF5D3AEFEF738FFC01B1128F5D915E76E
:10237000A36DD90030D4A36D43F08053A365A36D42
:1023800003F080530193019B0127DFF89082D8F876
:102390000030DA0522D5AA68D30733D4D4F89030B8
:1023A00023F00103C4F89030D4F8903023F00403F4
:1023B000C4F89030002A3CD1FEF70EFF41F2883974
:1023C0008046D4F890309B074BD4D4F8903023F05B
:1023D0008003C4F8903035E00027D6E7D8F8003005
:1023E00043F48073C8F80030FEF7F6FE8146D8F853
:1023F0000030D805CFD4FEF7EFFEA0EB090002288D
:10240000F5D9CBE6D4F8903002F0800123F08003B8
:102410000B43C4F89030D4F89030510742BF43F0DA
:102420000403C4F89030D4F8903043F00103C4F8AA
:102430009030FEF7D1FE41F288398046D4F89030D2
:102440009A0707D5002F3FF464AEA36D23F08053A5
:10245000A3655EE6FEF7C0FEA0EB08004845EDD997
:102460009CE6FEF7B9FEA0EB08004845A9D995E621
:10247000AB6A9BB1D4F8983043F00103C4F89830AC
:10248000FEF7AAFE0746D4F8983098073FF545AE08
:10249000FEF7A2FEC01B0228F5D97FE6D4F89830DB
:1024A00023F00103C4F89830FEF796FE0746D4F8EF
:1024B000983099077FF531AEFEF78EFEC01B0228DB
:1024C000F5D96BE6022B40F08C80E3682A6B03F0B1
:1024D0000301914222D1696B03F0F0020139B2EBA2
:1024E000011F1BD1A96B03F4FE42B2EB012F15D1E2
:1024F000E96B03F07842B2EBC16F0FD12A6C52083E
:1025000003F4C001013AB1EB425F07D16A6C520893
:1025100003F0C063013AB3EB426F49D00C2E3FF495
:102520009DAD23685A013FF599AD2368DB003FF567
:1025300095AD236823F080732360FEF74DFE0646B9
:1025400023689F012ED4E268324B13402A6B134359
:10255000AA6B43EA0223EA6B43EAC2636A6B013A5D
:1025600043EA02132A6C5208013A43EA42536A6C66
:102570005208013A43EA4263E360236843F0807300
:102580002360E36843F08073E360FEF725FE0546B1
:10259000236898013FF5C5ADFEF71EFE401B0228DB
:1025A000F6D9FBE5FEF718FE801B0228C8D9F5E531
:1025B000236899013FF5B5AD236843F0807323602C
:1025C000E36843F08073E360FEF706FE0546236888
:1025D0009A013FF5A6ADFEF7FFFD401B0228F6D994
:1025E000DCE50C2E3FF43AAD236823F080732360C2
:1025F000FEF7F2FD054623689B0104D4E268064B12
:102600001340E3608DE5FEF7E7FD401B0228F2D999
:10261000C4E500BF0C809D01FCFFEEFE0070004091
:102620002DE9F8430E46054610B90120BDE8F883B0
:10263000704A136803F00F038B4243D329688F0756
:102640004BD4CC0776D56F686B4C032F236840F0D2
:10265000A5809801E9D5E36803F00303022B49D074
:10266000032B49D0012B49D12368644A190755BF70
:10267000D4F894302368C3F30323C3F3031352F84D
:102680002320E168E368C3F306235343E268C2F3FF
:102690004162C1F30311013252000131B3FBF1F386
:1026A000B3FBF2F3564A93422AD9A36813F0F00F12
:1026B00026D1A36823F0F00343F08003A3604FF01A
:1026C00080081FE0136823F00F030B4313601368A7
:1026D00003F00F038B42A8D1B0E7474AA86893687C
:1026E00003F0F003984281BF936823F0F0030343A3
:1026F0009360A6E7434AC4E7434AC2E70022C0E723
:102700004FF00008A36823F003033B43A360FEF7E8
:1027100063FD41F288390746A3686A6803F00C0339
:10272000B3EB820F4CD1B8F1000F03D0A36823F0B4
:10273000F003A36029688A070BD52F4AA86893681D
:1027400003F0F00398423FBF936823F0F003034384
:102750009360284A136803F00F03B34237D811F08F
:10276000040F254C3FD10B0706D5A3682A6923F433
:10277000605343EAC203A360FFF722FCA368234A25
:10278000C3F30313D35C03F01F03D840204B18603E
:10279000204B1868BDE8F843FEF7DCBC022F08D1D7
:1027A00013F4003F3FF441AFFFF70AFC144B98428B
:1027B0007AE717B913F0020FF4E713F4806FF1E72B
:1027C000FEF70AFDC01B4845A6D903202EE7136873
:1027D00023F00F0333431360136803F00F03B34276
:1027E0007FF423AFBBE7A368EA6823F4E0631343F5
:1027F000A360B8E7002002400010024070A000086B
:1028000000B4C4040024F40000127A00A0A0000860
:102810000000002008000020014B1868704700BF2E
:1028200000000020F8B53B4CE3689B0705460E46C8
:10283000006822D0E36803F00303834230D17BB306
:10284000236823F080632360FEF7C6FC07462368F5
:102850001A012ED46A68A868013A000212017EB3F8
:10286000012E266945D12B695B08591E2A4B33403E
:102870000343134343EA41532AE002280CD00328C0
:1028800010D001280CD123689F0718D5E36823F0E6
:1028900003030343E360D3E7236813F4806FF5D1A8
:1028A00001200CE023689903F0D4236813F4802FEF
:1028B000F5E7FEF791FCC01B0228C8D90320F8BD3C
:1028C0002669EB68154940EAC36331400B43134363
:1028D0002361236843F080632360FEF77DFC064696
:1028E00023681B010FD52369AA69134323610020C4
:1028F000E5E76B695B08591E094B334003431343FB
:1029000043EA4163E4E7FEF767FC801B0228E7D94E
:10291000D4E700BF001002400F809FFF0F80FF0729
:102920000F80FFF9F8B5354CE3689B0705460E4666
:10293000006821D0E36803F0030383422FD173B30F
:10294000236823F080532360FEF746FC0746236884
:102950009A002DD46868AB6801381B02000176B379
:102960006A6966695208511E254A32401A43024379
:1029700042EA416262612BE002280CD0032810D0A9
:1029800001280CD123689F0718D5E36823F00303BF
:102990000343E360D4E7236813F4806FF5D101208B
:1029A0000CE023689903F0D4236813F4802FF5E733
:1029B000FEF712FCC01B0228C9D90320F8BDEA6843
:1029C000616943EAC2630F4A0A40134303436361E8
:1029D000236843F080532360FEF7FEFB064623681E
:1029E0009B0005D56369AA69134363610020E5E78D
:1029F000FEF7F2FB801B0228F1D9DEE7001002404F
:102A00000F80FFF90F80FF0703681A052DE9F347D0
:102A1000044627D5C16E402926D016D851B32029A7
:102A20002FD001262368DB040DD5216FB1F5007F7F
:102A300000F0AA812CD8002900F0AC81B1F5807F8C
:102A400000F0AD810126354635E0602901D08029AE
:102A5000E7D10E4AE16ED2F89C3023F0E0030B433D
:102A6000C2F89C300026DDE7084AD36843F480337F
:102A7000D360EEE70430FFF7D5FE06460028D1D13B
:102A8000E7E700212030FFF74DFFF6E70010024096
:102A9000B1F5407F02D0B1F5806FD3D13546002D1E
:102AA00040F08381B24A216FD2F89C3023F4E06376
:102AB0000B43C2F89C3023689F0338D5AC4FBB6DE5
:102AC000D80000F17481BB6D43F08053BB65BB6DD2
:102AD00003F080530193019B4FF00108DFF89492BB
:102AE000D9F8003043F48073C9F80030FEF774FB66
:102AF0008246D9F80030D90540F15C81002D40F0C4
:102B00008E81D7F8903013F4407340F05D81D7F890
:102B10009030D4F8942023F440731343C7F89030D6
:102B2000B8F1000F03D0BB6D23F08053BB65236861
:102B3000D80708D58E49E06BD1F8882022F003022F
:102B40000243C1F88820990708D58949206CD1F83B
:102B5000882022F00C020243C1F888205A0708D5C9
:102B60008349606CD1F8882022F030020243C1F81A
:102B700088201F0708D57E49A06CD1F8882022F054
:102B8000C0020243C1F88820D80608D57849E06C15
:102B9000D1F8882022F440720243C1F888209906B7
:102BA00008D57349206DD1F8882022F44062024391
:102BB000C1F888209A0508D56D49606ED1F8882043
:102BC00022F440220243C1F888205F0508D56849F5
:102BD000A06ED1F8882022F440120243C1F8882068
:102BE000580608D56249606DD1F8882022F4405219
:102BF0000243C1F88820190608D55D49A06DD1F8B7
:102C0000882022F440420243C1F88820DA0508D522
:102C10005749E06DD1F8882022F440320243C1F8D0
:102C20008820DF0208D55249206ED1F89C2022F07E
:102C300003020243C1F89C20980410D54C4A616FEE
:102C4000D2F8883023F040630B43B1F1006FC2F833
:102C5000883040F0E680D36843F48013D360236863
:102C600019030FD5A16F424BB1F5804FD3F89C20CB
:102C700040F0E38042F48042C3F89C20DA6842F4DA
:102C80008032DA6023685A0310D5394AE16FD2F8EE
:102C9000883023F040630B43B1F1006FC2F88830F5
:102CA00040F0DD80D36843F48013D36023685B0475
:102CB00013D52F49D4F88020D1F8883023F0405321
:102CC0001343B2F1805FC1F8883006D10221201D84
:102CD000FFF7A8FD051E18BF2E462268D70309D5A9
:102CE0002349D4F88400D1F89C3023F00403034333
:102CF000C1F89C30900209D51D49D4F88800D1F85C
:102D00009C3023F018030343C1F89C3051021CD5BA
:102D1000174F3B6823F080533B60FEF75DFA804617
:102D20003B689A0000F1A78085B9D7F89C30D4F8A9
:102D30008C2023F440331343C7F89C30022104F164
:102D40002000FFF7EFFD054600B935462368DB019B
:102D500016D5074AD4F89010D2F89C3023F44013CB
:102D60000B43B1F5001FC2F89C3009D104E000BF4D
:102D70000010024000700040D36843F48013D36019
:102D8000284602B0BDE8F087454AD36843F4803353
:102D9000D36083E6201DFFF745FD05467FE6002151
:102DA00004F12000FFF7BEFDF7E72E4683E64FF063
:102DB000000893E6FEF710FAA0EB0A0002287FF65F
:102DC00098AE03263546ABE6D4F8942093423FF400
:102DD0009EAED7F89020D7F8903043F48033C7F8F0
:102DE0009030D7F8903022F4407123F48033D2072A
:102DF000C7F89030C7F890107FF589AEFEF7ECF970
:102E000041F2883A8146D7F890309B073FF57FAE74
:102E1000FEF7E2F9A0EB09005045F4D9D1E72E46C0
:102E20007EE6B1F1806F7FF41AAF0121201DFFF71C
:102E3000F9FC051E18BF2E4611E722F48042C3F8A4
:102E40009C20D3F8882022F040620A43B1F1006F41
:102E5000C3F8882018D1DA6842F4801211E7B1F182
:102E6000806F7FF423AF0121201DFFF7DBFC051EDF
:102E700018BF2E461AE7FEF7AFF9A0EB08000228AC
:102E80007FF64EAF032561E7B1F1806F7FF4FAAEB4
:102E90000121201DFFF7C6FC051E18BF2E46F1E6D6
:102EA00000100240024A136843F0040313607047A5
:102EB0000010024084B013B5044605A880E80E0057
:102EC000E36843F04003E36000230193019B013377
:102ED0000193019BB3F1706F24D82369002BF5DABD
:102EE0000A230193019BD3B9236943F001032361B2
:102EF000019B01330193019BB3F1706F12D82069DC
:102F000010F00100F4D19DF81D306BB9A36B43F4B0
:102F10008033A36302B0BDE8104004B07047019B4A
:102F2000013BDEE70320EEE7A36B23F48033F0E7F9
:102F3000022A4AD1274B284A0B44934239D9274BBE
:102F4000274A0B44934236D9264AA1F57403A3F5C8
:102F50001053934231D9244AA1F18373A3F5E74377
:102F600093422CD3214B224A0B44934229D9214B23
:102F7000214A0B44934226D3204B214A0B449342CF
:102F800023D3204AA1F1B773A3F5585393421ED31C
:102F90001D4B1E4A0B4493422CBF06230723C268D5
:102FA00022F47052C260C26842EA8323C3600020E8
:102FB00070470F23F3E70E23F1E70D23EFE70C2310
:102FC000EDE70B23EBE70A23E9E70923E7E708230B
:102FD000E5E700BF405327FFFF340C00401E1BFFF6
:102FE0003F420F007F4F120020D6130060B6E5FE6F
:102FF0005FE3160000D3CEFE40771B00C05BB3FE3C
:10300000C091210020753800E05459FEE09C410039
:10301000836843F00103836000207047836823F0D6
:10302000010383600020704738B5C368012923F08D
:10303000C04305460C46C36014D1C36843F0005337
:10304000C36000240A20FEF7CDF86B69D90704F1AC
:103050000A0402D4C82CF5D1C824A4F1C8035842EC
:10306000584138BD71B9C36843F08043C3600A203A
:10307000FEF7B8F86B69DA0704F10A04EDD5C82C3D
:10308000F5D1E9E70120ECE782B000230246019385
:10309000019B01330193019BB3F1706F15D8136944
:1030A000002BF5DA8901002341F020010193116121
:1030B000019B01330193019BB3F1706F05D8106937
:1030C00010F02000F4D102B070470320FBE782B07B
:1030D000002302460193019B01330193019BB3F14D
:1030E000706F13D81369002BF5DA002301931023B6
:1030F0001361019B01330193019BB3F1706F05D8FC
:10310000106910F01000F4D102B070470320FBE703
:10311000D0F800381943C0F80018002070470000AC
:1031200084B02DE9F843044609A880E80E00002386
:103130009DF824809DF82E70194603F1400204EB9F
:10314000820201330F2B5160F7D104F50066002F86
:1031500061D1736843F002037360A36B23F400131F
:10316000A363236843F040032360236843F0800394
:10317000236000250321C4F8005E2046FFF7C8FF46
:1031800010212046FFF780FF01462046FFF79FFFF2
:103190000843C0B2401B356118BF0120756104F5BA
:1031A0001063F5612A464FF090414FF0006C4FF6E6
:1031B0007F3EA84534D8002204F5306311464FF015
:1031C00090454FF0006C4FF67F3E90453AD83369FA
:1031D00023F4807333610023A3616FF08043636144
:1031E000A36943F01003A361A2691F4B1343A361BA
:1031F0009DF82A301BB1A36943F00803A361012F96
:1032000001BFA36943F0804343F00403A361BDE819
:10321000F84304B07047A36B43F40013A363A8E71B
:10322000D3F80090B9F1000F0ADA3DB9C3F800C035
:103230001A610135C3F808E02033BAE71960F7E7EF
:103240001A60F5E7D3F80090B9F1000F0ADA3AB93D
:10325000C3F800C019610132C3F808E02033B4E7B5
:103260001D60F7E71960F5E700383C80D0F80838B2
:1032700013F0020F00F5006014BF02200F2070470A
:1032800030B50C78012204F00F05AA404D78012DCD
:1032900000F5006300EB441019D1DD692A43DA61BF
:1032A000D0F800391A0410D48A68D0F80059C2F353
:1032B0000A030A792B4343EA824343EA845343F0E7
:1032C000805343F40043C0F80039002030BDDC696E
:1032D00044EA0242DA61D0F8003B1B04F5D48B6863
:1032E000D0F8002BC3F30A0313430A7943EA82435D
:1032F00043F0805343F40043C0F8003BE5E700008F
:1033000010B50A784978012900EB421300F50060F6
:1033100002F00F0222D1D3F8001900290BDAD3F8FA
:10332000001941F00061C3F80019D3F8001941F009
:103330008041C3F80019C46B012101FA02F224EAAA
:103340000204C463C16921EA0202C261D3F8001910
:10335000144A0A40C3F80029002010BDD3F8001B0E
:1033600000290BDAD3F8001B41F00061C3F8001B01
:10337000D3F8001B41F08041C3F8001BC46B4FF42D
:10338000803101FA02F224EA0204C463C16921EA2D
:103390000202C261D3F8001B034A0A40C3F8002BA3
:1033A000DAE700BF007833EC0078F3EF37B500229E
:1033B000009285680346487801281ED1097803F5F4
:1033C00010634A0103EB4111D458002C02DB0020AA
:1033D00003B030BDD45844F00064D450D45844F005
:1033E0008044D450009B01330093009BB3F5702FB1
:1033F000EED80B68002BF5DBE9E79A6922F0800232
:103400009A615A6903F5006412065EBF626842F46D
:1034100000726260AD063ED4009A01320092009ABA
:10342000B2F5702F35D85A69D006F5D500201A6A42
:103430000192019A00220092009A01320092009AB1
:10344000B2F5702F29D85A691206F5D50A7803F516
:103450003063510103EB4212CD5845F00065CD5069
:10346000CD5845F08045CD5000230093009B01339B
:103470000093009BB3F5702F11D893689B07F5D587
:10348000936843F002039360636843F4806363606E
:103490009EE70120CBE70020CCE70120D6E7012002
:1034A000EEE74A780B78012A00EB431012D1D0F8EE
:1034B0000029002A06DB2BB1D0F8003923F0804325
:1034C000C0F80039D0F8003943F40013C0F80039CF
:1034D00000207047D0F8002B002A06DB2BB1D0F873
:1034E000003B23F08043C0F8003BD0F8003B43F49E
:1034F0000013C0F8003BEBE70B784A7800EB431071
:103500000B79012AA3F10203DBB20FD1D0F8002915
:10351000012B22F40012C0F8002905D8D0F8003998
:1035200043F08053C0F8003900207047D0F8002BDA
:1035300022F40012012BC0F8002B9EBFD0F8003BF4
:1035400043F08053C0F8003BEEE7033301329B08A1
:1035500000EB023001EB8303994201D10020704758
:1035600051F8042B0260F7E72DE9F0414A7891F811
:1035700000E00B690E79012A8C465B4A5B4900EB3F
:103580004E1567D105F510642769F3B939402161FB
:10359000216941F40021216121690A402261D5F8A5
:1035A0000029012E42F00442C5F800293ED04BB15B
:1035B000D0F834280EF00F0E012303FA0EF3134354
:1035C000C0F834380020BDE8F0813A402261226919
:1035D0000A402261DCF80820BEF1000F0DD19A42AA
:1035E0003CBFCCF810201346226942F4002222612D
:1035F0002169C3F312020A43D0E73D4FD4F810808B
:10360000D1180139B1FBF2F18AB207EAC14141EAAE
:103610000801012E2161EBD1216921F0C041216116
:103620002169520702F0C0420A43E0E7D0F80828B7
:10363000DCF80C1012F4807FD5F800290CBF42F0A2
:10364000005242F08052C5F800299BB27246FFF743
:103650007CFFB7E7D5F8104B2240C5F8102BD5F802
:10366000102BDCF808400A4005F530673A61BEF1DE
:10367000000F23D10BB1CCF81040CCF820403B69AF
:10368000C4F312041C433C613B6943F400233B61D7
:10369000012E0CD1D0F8083813F4807FD5F8003B08
:1036A0000CBF43F0005343F08053C5F8003BD5F8FE
:1036B000003B43F00443C5F8003B83E7002BDED01A
:1036C00023440B4A3969013BB3FBF4F39BB25C43DF
:1036D00002EAC3430B43CCF820403B613B69C4F38F
:1036E00012041C433C61D3E70000F8FFFFFF07E032
:1036F0000000F81F70B50023940800F5805502F013
:103700000302A34204D301EB840132B9084670BD21
:103710002E6841F823600133F3E700F58050002361
:103720000468D80024FA00F05854013398B2824259
:10373000F7D15018EBE7D0F8003823F4FE63C0F857
:103740000038D0F80038090101F4FE611943C0F8CF
:10375000001800207047D0F8003E23F00303C0F8A3
:10376000003ED0F8043823F00203C0F804380020EB
:103770007047D0F8003E23F00303C0F8003ED0F8B5
:10378000043843F00203C0F804380020704742694F
:10379000806910407047D0F8183800F50060C069A3
:1037A0001840000C7047D0F8183800F50060C06968
:1037B000184080B2704700EB411100F50060D1F86D
:1037C000082B406910407047D0F81028D0F83438E2
:1037D00000EB411001F00F01CB4000F51060DB0160
:1037E0008068DBB2134318407047406900F0010065
:1037F0007047D0F800396FF30A03C0F80039D0F8E9
:10380000043843F48073C0F8043800207047000087
:10381000016C0C4A914200F5306303D9D0F8002BBB
:10382000002A0DDB00221A611A6942F400221A6193
:103830001A6942F018021A611A6942F0C0421A610C
:10384000002070470A30544FD0F8D43200EB830088
:1038500010B5D0F8C0428CB1D0F8C4321BB194F886
:103860000002FF2801D1002010BD9B6894F80122BE
:1038700021469847FF2384F80032F4E70320F3E75A
:103880000A230380004870478800002070B5822119
:1038900006460F4800F085FB012105460C4800F064
:1038A00080FB812104460A4800F07BFB0DB1102209
:1038B000AA711CB1402222710022627118B140220B
:1038C00002710022427143230148338070BD00BF62
:1038D0000C000020FFF7DABF70B5822106460F48C2
:1038E00000F05FFB012105460C4800F05AFB8121E6
:1038F00004460A4800F055FB0DB11022AA711CB114
:10390000002222710222627118B100220271022289
:10391000427143230148338070BD00BF0C0000207A
:1039200038B5D0F8D432B033044650F823508DB1B6
:1039300001F063F8D4F8D432C5F80C0204EB830428
:10394000D5F80402D4F8C43205F50371DB68984752
:10395000002038BD0320FCE7F8B5D0F8D46200EBB6
:1039600086060A46D6F8C05235B301F00F0C14276C
:1039700007FB0C077B698BB1D0F8C8424FF0240ECF
:103980000EFB0C44E469B3FBF4FC04FB1C332BB9C1
:103990007B611A4601F01BF80020F8BD0023C5F832
:1039A0001432D6F8C4321B69002BF5D0D5F80802C2
:1039B00005F504719847EFE70320EEE7D0F8D4321D
:1039C000F7B500EB83030022D3F8C0628DF8052021
:1039D00004460D46ADF80620002E65D091F800C0D3
:1039E0001CF0600229D0202A5AD1CA884F78F2B13F
:1039F0001CF0800F0ED0D3F8C43231469B68384695
:103A00009847EA88072A28BF07223146204600F057
:103A100061FD09E0402A28BF402286F8007286F83E
:103A20000122314600F06CFD002003B0F0BDD3F858
:103A3000C43238469B689847F6E74B780B2B2FD853
:103A400001A252F823F000BF793A0008293A000891
:103A5000A13A0008A13A0008A13A0008A13A0008DA
:103A6000A13A0008A13A0008A13A0008A13A0008CA
:103A7000893A0008993A000890F89C32032B0FD13C
:103A800002220DF10601C1E790F89C32032B07D109
:103A900001220DF10501B9E790F89C32032BC3D048
:103AA0002946204600F0EFFC0320BEE738B5044667
:103AB0000025812100F04DFF012184F83750204678
:103AC00000F047FF84F877518221204600F041FF43
:103AD000D4F8D43284F84B5004EB83036564D3F8F4
:103AE000C0228AB1D3F8C4325B689847D4F8D43284
:103AF000B03354F8230000F0BBFFD4F8D432B03315
:103B000044F82350C4F8BC52002038BDF8B5044630
:103B10004FF4077000F0A8FF054630B9D4F8D4324E
:103B2000B03344F82300022046E04FF4077200212E
:103B300001F050FFD4F8D432B03344F82350237C42
:103B4000C4F8BC52CBBB4FF4007381210222204643
:103B500000F0F1FE012184F837104FF400730222C7
:103B6000204600F0E8FE0126102303226364822130
:103B7000082384F87761204600F0DDFED4F8D432C3
:103B800084F84B6004EB83030027D3F8C432C5F8F4
:103B900004721B689847D5F80422C5F81472C5F85A
:103BA0001872002ABFD0237C93B94FF400733146BA
:103BB000204600F017FF0020F8BD4023812102229B
:103BC000204600F0B8FE012184F837104023C6E7F4
:103BD0004023ECE739B1D0F8D43200EB8300C0F8D1
:103BE000C4120020704703207047D0F8D432B0339D
:103BF00050F823302BB1C3F80812C3F8102200206C
:103C0000704703207047D0F8D432B03350F82330D7
:103C10001BB1C3F804120020704703207047D0F88E
:103C2000D432B03310B550F823207AB1D2F8144210
:103C300001236CB9C2F81432D2F810328362D2F880
:103C40000822812100F0C3FE204610BD0320FCE7BE
:103C50001846FAE7D0F8D422B03208B550F822203E
:103C600062B1037CD2F8042233B94FF4007301210E
:103C700000F0B8FE002008BD4023F8E70320FAE773
:103C800078B10023C0F8B832C0F8C432C0F8D032DE
:103C900009B1C0F8B412012380F89C32027000F020
:103CA00015BE0320704713B500230446ADF8063057
:103CB00081B1CB6AC0F8B81223B10DF10600984764
:103CC000C4F8D002D4F8D8320133C4F8D832002076
:103CD00002B010BD0320FBE700F022BED0F8B832DE
:103CE0000BB11B6818471846704708B5D0F8B832B2
:103CF0005B689847002818BF032008BD38B5044604
:103D000000F2AA25284600F0B3FB012394F8AA127A
:103D1000C4F89432B4F8B032C4F8983201F01F03FA
:103D2000012B08D0022B0CD08BB929462046BDE8C8
:103D3000384000F053B929462046BDE8384000F02D
:103D4000C5BA29462046BDE8384000F0EEBA204604
:103D500001F08001BDE8384000F006BE70B50446B1
:103D600039BBD0F89432032B12D1D0F85831B0F8C7
:103D7000602193420ED9D0F864119B1A11449A42E3
:103D8000C0F85831C0F8641138BF1A4600F0C9FBBA
:103D9000002070BD90F89C32032B06D1D0F8B832C9
:103DA0001B6913B1C0F8D4129847204600F0C1FB3C
:103DB000EEE790F89C32032BEAD1D0F8B8329B6939
:103DC000002BE5D00022BDE87040C0F8D42218478F
:103DD00070B504460D4600293FD1D0F89432022B2D
:103DE00010D18269038C9A4214D9416AD21A1944BB
:103DF0008261416200F07CFB2B462A462946204620
:103E000000F0F0FD94F8A03213B1002384F8A03242
:103E1000002070BD0CD143699A4209D8D0F898228D
:103E2000934205D20A4600F063FBC4F89852E3E7D8
:103E300094F89C32032B08D1D4F8B832DB6823B154
:103E40000022C4F8D422204698478021204600F062
:103E50008BFD204600F078FBD4E790F89C32032BD2
:103E6000D6D1D0F8B8325B69002BD1D00022BDE8A2
:103E70007040C0F8D4221847F8B5012380F89C326E
:103E8000D0F8B83200210446C0F894124160C0F85E
:103E9000A41280F8A012BBB90026002240251146CA
:103EA00001274023204600F046FD84F86371A4F802
:103EB00060512B4600228021204600F03CFD84F812
:103EC000237025843046F8BD5B68002BE4D098470A
:103ED0000028E1D00326E0E701740020704790F845
:103EE0009C32042B1EBF90F89C32DBB280F89D32CE
:103EF000042380F89C320020704790F89C32042BF9
:103F000002BF90F89D32DBB280F89C3200207047EF
:103F100008B590F89C22032A05D1D0F8B83213B125
:103F2000DB6903B19847002008BDD0F8D422AE3237
:103F300008B550F822204AB190F89C32032B01D1E9
:103F4000136A0BB9002008BD9847FBE70320FAE786
:103F5000D0F8D422AE3208B550F822204AB190F8F9
:103F60009C32032B01D1536A0BB9002008BD98473E
:103F7000FBE70320FAE700207047012208B580F82C
:103F80009C22D0F8B8220AB9002008BD52680179F5
:103F900090470028F8D00320F7E700207047002062
:103FA000704710B5428803789A420AD904782044B1
:103FB00023444478052C9BB2F6D184788C42F3D10B
:103FC00010BD0020FCE710B58021044600F0CCFCB9
:103FD00020460021BDE8104000F0C6BC73B50B7848
:103FE00003F06003202B04460D4609D0402B07D078
:103FF00093B12046FFF7E7FF0025284602B070BDC9
:10400000D4F8D432AE33294654F823309B68204686
:1040100002B0BDE8704018474B78092BE9D801A2DF
:1040200052F823F06D420008B1420008F33F000847
:1040300095420008F33F0008674100084D40000822
:10404000F33F000841420008A94100080023ADF8F1
:1040500006304B881A0A013A0E2ACAD801A151F833
:1040600022F000BFAB400008DD400008F740000828
:10407000F33F0008F33F0008394100084F410008B2
:10408000F33F0008F33F0008F33F0008F33F000848
:10409000F33F0008F33F0008F33F0008A140000889
:1040A000D0F8B432DB691BB9A3E7D0F8B4321B688F
:1040B000207C0DF106019847EA88002A00F0A380D1
:1040C000BDF80630002B94D09A4228BF1A46ADF8AE
:1040D00006200146204600F0FDF98DE7027CD0F86D
:1040E000B83232B99B6A0DF106009847022343703B
:1040F000E2E7DB6AF7E7DBB2052B3FF67AAFDFE8F2
:1041000003F003070B0F1317D0F8B4325B68CAE74C
:10411000D0F8B4329B68C6E7D0F8B432DB68C2E7A7
:10412000D0F8B4321B69BEE7D0F8B4325B69BAE7A5
:10413000D0F8B4329B69B6E7037C002B7FF459AF0B
:10414000D0F8B8320DF106005B6B9847B4E7037CFA
:10415000002B7FF44EAFD0F8B8320DF106001B6B88
:1041600098470723C3E78B88002B7FF442AFCB88A7
:10417000002B7FF43EAF4D887F2D3FF63AAF90F88D
:104180009C32032B3FF435AFEDB280F89E522946A6
:1041900000F012FC204600F0CCF91DB1022384F897
:1041A0009C3229E70123FAE78978474D01292970D4
:1041B00003D9FFF708FF03251FE790F89C32022B75
:1041C000DEB208D0032E17D0FFF7FDFE2978204677
:1041D000FFF78BFDEFE7B1B101214160FFF77EFDF5
:1041E0000546204625B1FFF7EEFE84F89C6204E701
:1041F00000F09FF90323D2E749B9022380F89C32EB
:104200004160FFF772FD204600F093F9F4E6416843
:104210000129F8D0C9B2FFF768FD2978616020460E
:10422000FFF75CFD05460028EDD02046FFF7CBFEEA
:1042300021792046FFF759FD022384F89C32DCE601
:10424000CA88012A7FF4D5AE90F89C120229CBB21D
:1042500007D8002B3FF4CDAE0146002341F8083FBC
:1042600038E7032B7FF4C5AE011D33E790F89C328D
:10427000013B022B3FF6BDAECA88022A7FF4B9AEDD
:10428000D0F8A4320146002B0CBF0123032341F8D0
:104290000C3F1FE74B88012B02D1C4F8A432B2E7D0
:1042A000022B7FF4A6AE8B881B0A80F8A032AAE707
:1042B00090F89C32013B022B3FF69BAE4B88012BC2
:1042C0007FF49AAE0023E8E71403002070B50B7862
:1042D00003F060025B0604460E4601D5402A1FD15A
:1042E00094F89C32013B022B1AD8317901292046DF
:1042F00017D8FFF752FE88B9D4F8B8329B686BB173
:10430000C4F8D4023146204698470546F3881BB9C5
:1043100015B9204600F00DF9284670BD0325F5E7D4
:104320002046FFF750FE0025F6E770B50B788A8827
:104330000D7903F06003202B04460E4658D0402B25
:1043400056D01BB12046FFF73EFE3DE04B78012BD7
:104350003CD0032B25D0002BF4D190F89C32022BBB
:10436000D9B261D00329EDD105F00F0312F0800F0F
:104370004FF0140202FB030366D093F82330002BA6
:10438000E0D005F07F03142603FB0666802D06446B
:1043900066D02946204600F0FDFA002866D00123A9
:1043A0005FE090F89C32022BDAB233D0032AC9D1F5
:1043B0004B8833B9690604D0F38813B9294600F055
:1043C000D3FA204600F0B5F8002070BD90F89C327A
:1043D000022BDAB21ED0032AB4D14B88002BF3D1C2
:1043E0006B0602D0294600F0CAFA204600F0A1F878
:1043F00029462046FFF7D3FD0028E5D1D4F8B8328E
:10440000C4F8D4029B68002BDED031462046BDE8BC
:10441000704018476A0695D0294600F0A5FA802119
:10442000204600F0A1FACFE769068BD113064CBFF6
:1044300000F1140100F5AA71002301F80E3F0222D9
:10444000204600F047F8BFE793F86331002B3FF4B4
:1044500079AF142606FB050606F5AA76002D98D13D
:104460000023B373022206F10E01E9E7B073F9E706
:104470000B7803704B7843704B8843808B88838024
:10448000CB88C380704710B58021044600F06CFAD9
:1044900020460021BDE8104000F066BA70B50D4618
:1044A0001646044670B1FBF7FBFEC3B201335B0056
:1044B00033802B7003236B70013C0223002114F81E
:1044C000012F02B970BDEA545A1CD2B20233A9546A
:1044D000DBB2F4E710B513460222C0F89422436120
:1044E0000A4641628361002100F071FA002010BD8C
:1044F00008B513460A46002100F069FA002008BDFD
:1045000010B513460322C0F89422C0F854310A466D
:10451000C0F86411C0F85831002100F063FA00209F
:1045200010BD08B513460A46002100F05BFA0020D2
:1045300008BD08B504220023C0F8942219461A4683
:1045400000F045FA002008BD08B505220023C0F898
:10455000942219461A4600F045FA002008BD0000D2
:1045600008B50F490F480022FFF78AFB08B1FCF796
:104570003DFD0D490B48FFF796FB08B1FCF736FDF2
:104580000A490848FFF726FB08B1FCF72FFD05484C
:10459000FFF7A2FB18B1BDE80840FCF727BD08BD36
:1045A000E8000020180300205000002094000020A4
:1045B00000207047002070470020704708B5014672
:1045C0000348FFF720FB0248FFF744FB002008BD2B
:1045D0001803002008B5002204490548FFF705FB31
:1045E00004490348FFF70FFB002008BDF405002035
:1045F00018030020F40D002010B5094CD4F8BC328B
:10460000D3F814320A4643B901462046FFF7EDFAC3
:104610002046BDE81040FFF702BB012010BD00BFDF
:1046200018030020122301480B807047D40000209B
:10463000042301480B807047C40000200C2301486C
:104640000B807047C8000020002370B54D1C1E462B
:10465000040FB0F1204F34BF3034373401F8134029
:1046600005F813600133DCB2A2424FEA0010EFD824
:1046700070BD00001A2310B50B800A4BD3F89005CB
:10468000D3F8982580180AD0D3F894450649082213
:10469000FFF7DAFF042210312046FFF7D5FF034869
:1046A00010BD00BF0070FF1FAA000020A80000205E
:1046B00008B50A4602480349FFF7F0FE014808BD65
:1046C000579E0008F415002008B50A460248034921
:1046D000FFF7E4FE014808BD6A9E0008F4150020BB
:1046E00008B50A4602480349FFF7D8FE014808BD4D
:1046F000809E0008F415002008B50A4602480349C8
:10470000FFF7CCFE014808BD8B9E0008F415002081
:1047100010B5AEB004461422002103A801F05AF9E6
:104720009822002108A801F055F92368B3F1A04FA1
:1047300055D14FF4005308934FF080632593012324
:10474000CDE909334FF0180E0223CDE90BE3CDE993
:104750000D3308A84FF480130F93FEF755F908B1F5
:10476000FCF744FC204CE36C43F00103E364E36C8E
:1047700003F001030093009B4FF4C0520223CDE9E4
:10478000032300210323CDE905134FF090400A23B2
:1047900003A90793FCF7A0FDE36C43F48053E364A3
:1047A000E36C03F480530193019BA36DD80018D4EC
:1047B000A36D43F08053A365A36D03F08053029370
:1047C000029BFDF7B7FBA36D23F08053A365002286
:1047D00043201146FCF72CFD4320FCF75BFD2EB077
:1047E00010BDFDF7A7FBF2E70010024000F29C416C
:1047F000D0F8E004FFF782BA242303FB0103D0F8CA
:10480000E004D3F86022FFF7A9BA242303FB0103D5
:10481000D0F8E0041A6AFFF7DBBAD0F8E004FFF73B
:1048200077BB10B5C379022B044601D0FCF7DEFB41
:10483000D4F8E0040121FFF74FFBD4F8E004BDE811
:104840001040FFF719BB00000268D2F8003E10B517
:1048500043F001030446C2F8003ED0F8E004FFF73D
:104860003EFBE37A23B1034A136943F00603136165
:1048700010BD00BF00ED00E0026810B5D2F8003EA8
:1048800023F00103C2F8003EC37A044633B1064A5E
:10489000136923F006031361FCF764FAD4F8E0040B
:1048A000BDE81040FFF729BB00ED00E0D0F8E004C0
:1048B000FFF74EBBD0F8E004FFF737BBD0F8E004B9
:1048C000FFF759BBD0F8E004FFF757BB08B50278F3
:1048D00003460ABB1148C0F8E034C3F8C8024FF0E1
:1048E000A0430360062303710223C3714372428114
:1048F000C260FCF7C7FD08B1FCF778FB80210748D0
:10490000FDF791FA402200210448FDF76DFA0348B3
:1049100080220121FDF768FA002008BD141A00204A
:1049200008B5D0F8C802FCF71EFE18B102280CBF6B
:104930000120032008BD10B51446D0F8C8021A465D
:104940002346FCF73FFE18B102280CBF01200320CC
:1049500010BD08B5D0F8C802FCF769FE18B10228EE
:104960000CBF0120032008BD08B5D0F8C802FCF731
:10497000BCFE18B102280CBF0120032008BD08B5F9
:10498000D0F8C802FCF7E7FE18B102280CBF0120DE
:10499000032008BD11F0800FD0F8C8324FF0240278
:1049A0001BBF01F07F0102FB013302FB0133987D45
:1049B00008BF93F85602704708B5D0F8C802FCF754
:1049C000EEFD18B102280CBF0120032008BD08B578
:1049D000D0F8C802FCF774FE18B102280CBF012001
:1049E000032008BD08B5D0F8C802FCF74AFE18B18C
:1049F00002280CBF0120032008BDD0F8C802FCF734
:104A000057BE000010B5044611B1012916D010BDE3
:104A1000C37A33B1FCF7A6F9124A136923F00603EF
:104A200013612268D4F8E004D2F8003E23F00103B9
:104A3000BDE81040C2F8003EFFF75FBA0268D0F848
:104A4000E004D2F8003E43F00103C2F8003EFFF755
:104A500046FAE37A002BDAD0024A136943F00603E0
:104A60001361D4E700ED00E000487047F417002020
:104A700070472DE9FF4757EC106B002F0C46194685
:104A80003B46BBBF07F100431F4600232D230B709D
:104A90000D9BDDF830A0914623F02008BCBF3246C4
:104AA0001646B8F1460F05D0B8F1450F00D10134D4
:104AB000022100E0032103AB019302AB009347EC1A
:104AC000106B5346224601F0B3F8B8F1470F054684
:104AD00019D119F0010F0ED000EB040900220023B8
:104AE00030463946FCF708F808B1CDF80C90302272
:104AF000039B4B451ED3039B0E9A5B1B28461360FA
:104B000004B0BDE8F087B8F1460F00EB0409E5D129
:104B10000378302B0AD10022002330463946FBF7B8
:104B2000EBFF18B9C4F10104CAF80040DAF800300C
:104B30009944D3E7591C03911A70D9E7F7B50029B6
:104B4000BABF49422D232B2309290270437029DD66
:104B50000DF1070425460A272246B1FBF7F607FBAD
:104B60001613303302F8013C0B46632B04F1FF347B
:104B70003146F1DC3031931E04F8011C411C1C4607
:104B8000AB420AD30DF109039B1AA54238BF00239B
:104B9000821C1344181A03B0F0BD13F8016B01F81E
:104BA000016FEDE7302330318370C170031DF1E7F1
:104BB0002DE9F04F8DB00C46DDF8588016461F46A3
:104BC000054600F00FFF036806931846FBF768FBE5
:104BD00000230A93D8F8003094F818A0D4F800B055
:104BE0000790073323F00703B3EC027B8DED047BC2
:104BF000C8F80030DDE9048323F0004984ED127B1E
:104C00009C4B4FF0FF3240464946FBF7A7FF70BB75
:104C1000984B4FF0FF3240464946FBF781FF30BBCF
:104C2000DDE9040100220023FBF770FF10B12D2302
:104C300084F84330904A914BBAF1470F8CBF9046AD
:104C40009846032323612BF0040323604FF00009EF
:104C5000009733460BAA2146284600F0D1F90130CF
:104C600040F08C804FF0FF300DB0BDE8F08FDDE9F3
:104C7000042310461946FBF771FF40B1059B804A9B
:104C8000002BBCBF2D2384F843307E4BD4E76368F0
:104C90005A1C0AF0DF093BD1062363604BF48062A3
:104CA0000023226003930AABCDE901A309AB009373
:104CB00061689DED040B0DF123032846FFF7D9FE33
:104CC000B9F1470F0999804629D1C81C02DB6368F6
:104CD0008B4241DAAAF1020A5FFA8AFA0139524696
:104CE00004F150000991FFF729FF0A9A1318012ACD
:104CF0008146236102DC2268D20701D5013323619A
:104D00009DF82330002BA3D02D2384F843309FE758
:104D1000B9F1470FC2D1002BC0D10123BDE7BAF1D1
:104D2000650FDBD9BAF1660F18D1002963680BDD76
:104D3000216113B92268D00702D501330B442361E6
:104D4000A1654FF00009DBE713B92268D20701D54E
:104D50000233F4E70123F2E74FF0670A0A9B8B4224
:104D600005DC23682161D807EAD54B1CE7E7002959
:104D7000D4BFC1F1020201221344E0E723685A05BF
:104D800007D42369424631462846B84701302BD123
:104D900068E7BAF1650F40F2DD80D4E91201002224
:104DA0000023FBF7A9FE002833D0374A0123314600
:104DB0002846B84701303FF455AFDDE9093843458F
:104DC00002DB2368D8070FD5DDE9062331462846E4
:104DD000B84701303FF446AF4FF0000908F1FF3803
:104DE00004F11A0AC84509DC23689B0700F1038116
:104DF000E0680B9B9842B8BF184635E7012352463E
:104E000031462846B84701303FF42CAF09F101097B
:104E1000E8E7099B002B39DC1B4A01233146284671
:104E2000B84701303FF41EAFDDE9093959EA030301
:104E300002D12368D907D7D5DDE9062331462846B4
:104E4000B84701303FF40EAF4FF0000A04F11A0BDF
:104E5000099B5B42534501DC4B4693E701235A46CD
:104E600031462846B84701303FF4FCAE0AF1010A4A
:104E7000EEE700BFFFFFEF7F9D9E0008999E0008B0
:104E8000A59E0008A19E0008A99E0008A36DDDF85C
:104E900028A05345A8BF5346002B994636DC4FF057
:104EA000000B29EAE97904F11A02A36D0493A3EB3C
:104EB00009035B4531DC099B9A453ADC2368DA0734
:104EC00037D4099BAAEB0309049BAAEB030399457A
:104ED000A8BF9946B9F1000F33DC4FF0000829EA6A
:104EE000E97904F11A0B099BAAEB0303A3EB09036D
:104EF00043457FF779AF01235A4631462846B847E4
:104F000001303FF4AFAE08F10108ECE7424631460C
:104F10002846B8470130C2D1A4E6012331462846CD
:104F20000492B84701303FF49DAE049A0BF1010B97
:104F3000BBE7DDE9062331462846B8470130C0D13A
:104F400090E6049A4B46424431462846B847013021
:104F5000C3D187E6DDF828A0BAF1010F01DCDB0739
:104F600036D50123424631462846B84701303FF442
:104F700079AEDDE9062331462846B84701303FF4D3
:104F800071AED4E91201002200230AF1FF3AFBF7C7
:104F9000B3FDC0B9534608F1010231462846B8476F
:104FA00001300CD15EE601235A4631462846B84707
:104FB00001303FF457AE08F10108D045F3DB4B4612
:104FC00004F15002DFE64FF0000804F11A0BF4E799
:104FD00001234246E1E701234A4631462846B847C5
:104FE00001303FF43FAE08F10108E3680B995B1A0A
:104FF0004345F0DCFCE64FF0000804F11909F4E742
:105000002DE9F047164698468A680B69DDF820902E
:105010009342B8BF1346336091F8432007460C46CD
:105020000AB1013333602368990642BF3368023303
:105030003360256815F0060506D104F1190AE36806
:1050400032689B1AAB4226DC94F843302268003B5E
:1050500018BF012392062BD404F14302414638467F
:10506000C84701301ED02368226903F00603042BD1
:1050700002BFE5683368ED1AA3680CBF25EAE57541
:1050800000259342C4BF9B1AED1800261A34B5427E
:105090001AD1002008E00123524641463846C8474D
:1050A000013003D14FF0FF30BDE8F0870135C6E78E
:1050B000E1185A1C302081F84300224494F845102E
:1050C00082F843100233C7E701232246414638469F
:1050D000C8470130E6D00136D9E700002DE9F0439A
:1050E0000D7E85B0782D90460C9E07460C4699465D
:1050F00001F1430207D8622D0AD8002D00F0D780B5
:10510000582D00F0BC8004F1420684F842503BE088
:10511000A5F16303152BF6D801A151F823F000BFC8
:10512000795100088D510008075100080751000807
:1051300007510008075100088D5100080751000869
:105140000751000807510008075100089552000850
:10515000B7510008475200080751000807510008DE
:10516000B752000807510008B7510008075100085E
:10517000075100084F52000833681A1D1B6832603F
:1051800004F1420684F842300123A1E0336820682C
:10519000191D3160060601D51D6803E04506FBD5E3
:1051A000B3F90050002D03DA2D236D4284F843300B
:1051B0005B480A2311E021683368080653F8045B52
:1051C00002D4490648BFADB23360237E54486F2BEA
:1051D0005CD10823002184F843106668A660002E85
:1051E00005DB21682E4321F00401216050D01646D2
:1051F000B5FBF3F103FB115C10F80CC006F801CD10
:10520000AC4663450D46F3D9082B0BD12368DB0769
:1052100008D5236961689942DEBF302306F8013C56
:1052200006F1FF36921B2261CDF80090434603AA97
:1052300021463846FFF7E4FE01304ED14FF0FF30F3
:1052400005B0BDE8F083236843F0200323603548B0
:10525000782584F845502368316813F0800F51F8A1
:10526000045B03D113F0400F18BFADB23160D90712
:1052700044BF43F0200323601DB11023AAE7284850
:10528000E7E7236823F020032360F6E70A23A1E77A
:105290001646B9E7336825686169181D30602E0627
:1052A0001B6801D5196002E06806FBD51980002350
:1052B00023611646B8E733681A1D32601E686268BB
:1052C00000213046FAF79CFF08B1801B60606368DC
:1052D0002361002384F84330A6E723693246414620
:1052E0003846C8470130A9D023689B0713D4E0682B
:1052F000039B9842B8BF1846A2E7012332464146B5
:105300003846C847013099D00135E36803995B1AE4
:10531000AB42F2DCEBE7002504F11906F5E700BF2C
:10532000AB9E0008BC9E00082DE9F04F87B0914667
:1053300003938B685A1EB2F5AE7F81BF6FF4AE75D2
:1053400003EB050B40F25D138B600B680A464FF0D0
:10535000000543F4F06342F81C3BCDE90455804658
:105360000C4698BF4FF0000B01921646AA462F46F6
:105370000295A2685AB1D9F800301B784E2B63D839
:10538000402B3BD8A3F12B01C8B20E2839D91FB14D
:10539000236823F4807323600AF1FF3ABAF1010F06
:1053A00000F21481019B9E4200F20581012007B0AA
:1053B000BDE8F08FA3F161020D2AE8D801A151F8F0
:1053C00022F000BF0D5500088F5300088F530008CE
:1053D0008F53000869550008435500088F53000893
:1053E0008F5300081B5500088F5300088F53000887
:1053F0008F5300088F530008D7540008A3F14102CF
:10540000DAE70E29C3D801A050F821F0C7540008EC
:105410008F530008C7540008575500088F530008E1
:1054200069540008AD540008AD540008AD5400089C
:10543000AD540008AD540008AD540008AD54000848
:10544000AD540008AD5400086E2B09D8602BB1D8BC
:10545000542B7BD0592B9AD1072D98D108252FE0BA
:10546000742B73D0792BF6E72168C8051ED521F07F
:10547000800121600137BBF1000F03D001320BF135
:10548000FF3BA260A368013BA36023690133236152
:10549000D9F80430013B002BC9F8043040F3828076
:1054A000D9F800300133C9F8003062E71AEB050182
:1054B0007FF46DAF226822F4C07222600D468A46E6
:1054C00006F8013BDEE7226810067FF560AF22F0A8
:1054D00080022260F4E7BAF1000F0CD177B922689C
:1054E00002F4E061B1F5E06F08D122F4F0622260CD
:1054F0004FF0010AE4E7BAF1020F50D0012D02D0BB
:10550000042D7FF444AF0135EDB2D9E7BAF1010FB4
:105510007FF43DAF4FF0020AD2E775B9002F7FF458
:1055200037AF226802F4E061B1F5E06F40F002812C
:1055300022F4F06222600125C2E7032DE3D0052D9D
:10554000DFE7022D7FF423AF0325B9E7062D7FF4B3
:105550001EAF0725B4E7226891057FF518AF22F446
:10556000207222600297ABE7226802F4A061B1F5D5
:10557000806F05D050057FF50AAF002F00F0DA806C
:10558000910558BF029922F4F06258BF791A42F48B
:10559000C07258BFCDE904162260002790E74FF093
:1055A000030A8DE7D4F880314946404698470028E1
:1055B0003FF4DFAEEBE6D4F87C3116F8011D4A4625
:1055C000404698472369013B2361EBE66B1E062B9F
:1055D00024D8022D36D8019B9E427FF6E7AED4F840
:1055E0007C3116F8011D4A46404698472369013B25
:1055F0002361F0E7D4F87C311BF8011D4A46404690
:1056000098472369013B23610AF1FF3A5FFA8AFA5E
:10561000BAF1020FEED1033DEDB2761B2368DA0535
:1056200030D55D0511D5019B9E427FF6BFAED4F803
:105630007C3116F8011D4A46404698472369013BD4
:105640002361F0E7AA46B346DEE716F8011C23699A
:10565000652903F1FF3306F1FF3523610CD045299D
:105660000AD0D4F87C314A4640469847236916F858
:10567000021C013BB51E2361D4F87C314A464046EA
:1056800098472E46226812F0100201D000208EE6C4
:105690003270236803F4C063B3F5806F24D1029B9A
:1056A0009F420AD0DA1B04F26F139E4228BF04F512
:1056B000B7762149304600F007F9019900224046AB
:1056C00002F046FC039B21681B68880757EC106BAF
:1056D00003F1040215D503990A601B68C3E900674A
:1056E000E3680133E360D1E7049B002BE5D0059923
:1056F0000A230131404602F0ABFC049B059EC21A0E
:10570000D1E711F0040F03990A60E6D11D68324613
:105710003B4630463946FBF721FA28B1074800F0EE
:10572000D9F985ED000ADBE730463946FBF774FA14
:105730002860D5E700272FE6CD9E0008569E00087A
:10574000002310B50446C0E90033C0E90433836088
:1057500081814366C2818361194608225C3000F072
:1057600039F90D4B63620D4BA3620D4BE3620D4B98
:1057700023630D4B24629C4206D003F168029442DD
:1057800002D0D0339C4205D104F15800BDE810404E
:1057900000F09CB910BD00BF0D5900082F5900083A
:1057A000675900088D590008F81E0020024A034975
:1057B000034800F06BB800BF08010020098400080E
:1057C0001801002041680C4B994210B5044601D0E5
:1057D00002F01AFEA168094B994202D0204602F05D
:1057E00013FEE168064B994204D02046BDE8104004
:1057F00002F00ABE10BD00BFF81E0020601F00208E
:10580000C81F00200C4B0D4A0D4810B504211A602A
:105810000022FFF795FF0A4B01221C46092103F1E4
:105820006800FFF78DFF04F1D0000222BDE81040B0
:105830001221FFF785BF00BF30200020AD570008C0
:10584000F81E0020014800F042B900BF39200020B6
:10585000014800F03DB900BF3920002010B50446D2
:10586000FFF7F0FF236A1BB1BDE81040FFF7F0BF60
:10587000044B2362044B1B68002BF5D1FFF7C2FFDA
:10588000F2E700BFC5570008302000202DE9F8439B
:105890000746884614460026D4E90195B9F1010966
:1058A00005D52468002CF7D13046BDE8F883AB89D4
:1058B000012B07D9B5F90E30013303D029463846FC
:1058C000C04706436835E9E70EB410B59DB01FAB7D
:1058D000029006906FF000410A48079104910A492E
:1058E00053F8042B0591002402A9006801931B942E
:1058F00002F010FC029B1C701DB0BDE8104003B00C
:10590000704700BF140100200802FFFF10B50C46CD
:10591000B1F90E1000F08CF80028ABBF636DA389BD
:105920001B1823F48053ACBF6365A38110BD2DE920
:10593000F0411F468B89DB0505460C46164605D50A
:10594000B1F90E100223002200F060F8A389B4F927
:105950000E1023F48053A38132463B462846BDE80F
:10596000F04100F077B810B50C46B1F90E1000F018
:105970004DF8B4F90C30421C0BBF23F4805343F4B0
:105980008053A381A38118BF606510BDB1F90E10CB
:1059900000F02CB810B59AB00024009104916FF07B
:1059A000004105910291054903916946199402F05D
:1059B000B1FB009B1C701AB010BD00BF0802FFFFB6
:1059C00013460A46014602480068FFF7E3BF00BFDE
:1059D0001401002002440346934200D1704703F8AB
:1059E000011BF9E7004870475402002038B5064D06
:1059F0000023044608462B60FBF74EFB431C02D1F4
:105A00002B6803B1236038BD3420002038B5074D22
:105A100004460846114600222A601A46FBF746FB58
:105A2000431C02D12B6803B1236038BD3420002011
:105A300038B5074D04460846114600222A601A462A
:105A4000FBF70EFB431C02D12B6803B1236038BD6A
:105A50003420002038B5074D044608461146002280
:105A60002A601A46FBF70AFB431C02D12B6803B1DC
:105A7000236038BD34200020014B1868704700BFF8
:105A80001401002070B50D4B0D4D5B1B9C100026C2
:105A9000A64209D104F0C2F90A4D0B4B5B1B9C10C6
:105AA0000026A64205D170BD55F8043B9847013643
:105AB000EEE755F8043B98470136F2E7DCA600080C
:105AC000DCA60008DCA60008E0A6000870477047C6
:105AD000704700009FED010A704700BF0000C07FC3
